:100000000C94A4000C94CC000C94CC000C94CC0068
:100010000C94CC000C94CC000C94CC000C94CC0030
:100020000C94CC000C94CC000C94CC000C94CC0020
:100030000C94CC000C94CC000C94CC000C94CC0010
:100040000C940E030C94CC000C9456050C94A4054F
:100050000C94CC000C94CC000C94CC000C94CC00F0
:100060000C94CC000C94CC0007634236B79BD8A705
:100070001A39685618AEBAAB558C1D3CB7CC5763CD
:10008000BD6DEDFD753EF6177231BF000000803F7B
:1000900008000000BE922449123EABAAAA2ABECD97
:1000A000CCCC4C3E00000080BEABAAAAAA3E000009
:1000B0000000BF000000803F000000000008417801
:1000C000D3BB4387D1133D190E3CC3BD4282AD2B38
:1000D0003E68EC8276BED98FE1A93E4C80EFFFBE30
:1000E00001C4FF7F3F00000000000000000024006A
:1000F00027002A0000000000250028002B00000037
:10010000000023002600290004040404040404045D
:1001100002020202020203030303030301020408B2
:100120001020408001020408102001020408102061
:1001300000000007000201000003040600000000A8
:1001400000000000CE00100711241FBECFEFD8E042
:10015000DEBFCDBF11E0A0E0B1E0E4E7FAE102C00C
:1001600005900D92AC32B107D9F712E0ACE2B1E0E4
:1001700001C01D92A330B107E1F711E0C8E4D1E05E
:1001800004C02297FE010E94340DC434D107C9F780
:100190000E9466070C94380D0C9400008EE291E0EA
:1001A00061E070E00E94E3018CE391E060E070E0C8
:1001B0000E94E3018AE491E061E170E00E94F202B2
:1001C0000895EF92FF920F931F93CF93DF9384E0F4
:1001D0000E940205EC0185E00E9402057C018AE490
:1001E00091E00E94BF02AC0180912C0190912D0101
:1001F000019771F000E0CD2B09F401E010E0EF2849
:1002000009F411E020E04F3151050CF05DC05BC0F6
:100210008AE491E00E948602BC0181EE91E04AE00E
:1002200050E00E946E0881EE91E060E071E00E9473
:1002300081088AE491E00E948B02AB01BC0181EE4F
:1002400091E022E030E00E94680981EE91E060E0F8
:1002500071E00E9481088AE491E00E94BF02BC0123
:1002600081EE91E04AE050E00E946E0881EE91E05C
:1002700063E071E00E94810888C08EE291E069E944
:1002800070E00E9466028CE391E066E970E00E94F3
:10029000660264E670E080E090E00E94560384E02D
:1002A0000E940205892B09F401E085E00E94020505
:1002B00010E0892B09F411E08AE491E00E94BF026A
:1002C00020E04F970CF421E0002311F001E004C07E
:1002D000112311F4222389F28EE291E060E070E0B4
:1002E0000E9466028CE391E060E070E00E9466028A
:1002F00064E670E080E090E00E945603002309F17C
:100300008EE291E068E37FEF0E9466028CE391E069
:1003100068E37FEF0E9466026CE271E080E090E0AB
:100320000E9456038EE291E060E070E00E94660257
:100330006CE271E080E090E00E9456038CE391E073
:1003400020C08EE291E068E37FEF0E9466028CE3BA
:1003500091E068E37FEF0E9466026CE271E080E06A
:1003600090E00E9456038CE391E060E070E00E9410
:1003700066026CE271E080E090E00E9456038EE23B
:1003800091E060E070E00E9466026CE271E080E063
:1003900090E00E945603DF91CF911F910F91FF9043
:1003A000EF90089581EE91E040E855E260E070E062
:1003B0000E94DF0584E062E00E946F0485E062E055
:1003C0000E946F040895FC0188E191E0918380838D
:1003D000138212827583648383E090E0978386831F
:1003E0008BE090E0918780878CE090E09387828714
:1003F0008DE090E0958784870895FC018281938148
:1004000008950F931F938C01DC011496ED91FC91DC
:1004100015973396EE0FFF1FE00FF11F808160E00C
:1004200070E00E940F04D8011496ED91FC9115978D
:100430003596EE0FFF1FE00FF11F808160E00E94F4
:10044000AE041F910F9108950F931F938C01DC014F
:100450001496ED91FC9115973396EE0FFF1FE80F60
:10046000F91F80810E940F04D8011496ED91FC9130
:1004700015973596EE0FFF1FE00FF11F808160E0AA
:100480000E94AE041F910F9108950F931F938C014A
:10049000DC011496ED91FC9115973396EE0FFF1F3A
:1004A000E80FF91F80810E940F04D8011496ED9186
:1004B000FC9115973596EE0FFF1FE00FF11F80811D
:1004C00061E00E94AE041F910F910895FC019B0111
:1004D0007383628377FF07C066277727621B730BDE
:1004E0000E94240208956115710519F40E94010209
:1004F00008950E9445020895FC017583648363306A
:10050000710519F480E00E94EA030895FC018081DE
:100510000E94ED030895FC0184819581039781F485
:1005200080810E94ED03AA2797FDA095BA2FBC01F8
:10053000CD010E946F0A23E333E343E550E40FC08B
:1005400080810E94ED03AA2797FDA095BA2FBC01D8
:10055000CD010E946F0A20E030E040EA50E40E94A2
:10056000230B20E030EC4FE754E40E94D409E62F3F
:100570002E2F372F482F592FB901CA010895FC019A
:10058000848195810397B9F4CF010E948B022DECF1
:100590003CEC4CE85FEB0E94860B9B01AC01CA016E
:1005A000B90120E030E042E852E40E94230B0E94AF
:1005B0003C0ACB010895CF010E948B022DEC3CEC4C
:1005C0004CE85FEB0E94860B9B01AC01CA01B901AC
:1005D00020E030E048EC51E40E94230B0E943C0AEA
:1005E000CB010895EF92FF920F931F938C01F62E8B
:1005F000E72E862F60E00E946F04F801F082E1820E
:1006000084E690E093838283C80165E070E00E94F5
:100610007C021F910F91FF90EF9008951F920F920F
:100620000FB60F9211242F933F938F939F93AF9305
:10063000BF938091540190915501A0915601B091C2
:100640005701309158010196A11DB11D232F2D5F37
:100650002D3720F02D570196A11DB11D2093580173
:100660008093540190935501A0935601B093570184
:100670008091500190915101A0915201B09153018C
:100680000196A11DB11D8093500190935101A0933B
:100690005201B0935301BF91AF919F918F913F91C0
:1006A0002F910F900FBE0F901F9018959B01AC01DA
:1006B0007FB7F8948091500190915101A09152011F
:1006C000B091530166B5A89B05C06F3F19F0019624
:1006D000A11DB11D7FBFBA2FA92F982F8827860F84
:1006E000911DA11DB11D62E0880F991FAA1FBB1F9C
:1006F0006A95D1F7BC012DC0FFB7F89480915001E5
:1007000090915101A0915201B0915301E6B5A89B7F
:1007100005C0EF3F19F00196A11DB11DFFBFBA2F13
:10072000A92F982F88278E0F911DA11DB11DE2E0E2
:10073000880F991FAA1FBB1FEA95D1F7861B970B3D
:10074000885E9340C8F2215030404040504068518C
:100750007C4F211531054105510571F608957894B6
:1007600084B5826084BD84B5816084BD85B58260B6
:1007700085BD85B5816085BDEEE6F0E08081816054
:100780008083E1E8F0E01082808182608083808154
:1007900081608083E0E8F0E0808181608083E1EB2C
:1007A000F0E0808184608083E0EBF0E08081816014
:1007B0008083EAE7F0E080818460808380818260CA
:1007C00080838081816080838081806880831092B3
:1007D000C1000895809313010895982F8E3008F07A
:1007E0009E509770809113018295880F880F807CAE
:1007F000892B80937C0080917A00806480937A00BA
:1008000080917A0086FDFCCF20917800409179009C
:10081000942F80E030E0282B392BC90108951F93D5
:10082000CF93DF93182FEB0161E00E946F042097B4
:1008300009F44AC0CF3FD10509F449C0E12FF0E0E7
:10084000E05DFE4F84918330C1F0843028F4813024
:1008500051F08230B1F50CC0863019F1873049F182
:10086000843079F514C084B5806884BDC7BD33C0B9
:1008700084B5806284BDC8BD2EC080918000806830
:1008800080938000D0938900C093880024C0809119
:100890008000806280938000D0938B00C0938A0098
:1008A0001AC08091B00080688093B000C093B300FC
:1008B00012C08091B00080628093B000C093B400F9
:1008C0000AC0C038D1051CF4812F60E002C0812F1E
:1008D00061E00E94AE04DF91CF911F910895CF9304
:1008E000DF93482F50E0CA01845E9E4FFC01349193
:1008F000485F5E4FFA018491882369F190E0880F88
:10090000991FFC01E651FF4FA591B491FC01EC50F9
:10091000FF4FC591D491662351F42FB7F8948C9171
:10092000932F909589238C93888189230BC0623003
:1009300061F42FB7F8948C91932F909589238C9321
:100940008881832B88832FBF06C09FB7F8948C9132
:10095000832B8C939FBFDF91CF910895482F50E058
:10096000CA01805D9E4FFC012491CA01845E9E4FA6
:10097000FC019491485F5E4FFA013491332309F4EE
:1009800040C0222351F1233071F0243028F421306B
:10099000A1F0223011F514C02630B1F02730C1F09B
:1009A0002430D9F404C0809180008F7703C08091F7
:1009B00080008F7D8093800010C084B58F7702C047
:1009C00084B58F7D84BD09C08091B0008F7703C04E
:1009D0008091B0008F7D8093B000E32FF0E0EE0FA8
:1009E000FF1FEC50FF4FA591B4912FB7F8946623E9
:1009F00021F48C919095892302C08C91892B8C9342
:100A00002FBF0895682F70E0CB01805D9E4FFC01E1
:100A10002491CB01845E9E4FFC014491685F7E4F20
:100A2000FB019491992319F420E030E03CC022238B
:100A300051F1233071F0243028F42130A1F022301C
:100A400011F514C02630B1F02730C1F02430D9F4AC
:100A500004C0809180008F7703C0809180008F7DDB
:100A60008093800010C084B58F7702C084B58F7DDD
:100A700084BD09C08091B0008F7703C08091B00021
:100A80008F7D8093B000892F90E0880F991F82504E
:100A90009F4FFC01A591B4918C9120E030E084231C
:100AA00011F021E030E0C901089508951F920F92DE
:100AB0000FB60F9211242F933F934F938F939F93D1
:100AC000EF93FF938091C00082FD1DC04091C6004E
:100AD0002091990130919A012F5F3F4F2F73307011
:100AE00080919B0190919C012817390771F0E0914A
:100AF0009901F0919A01E75AFE4F408330939A0191
:100B00002093990102C08091C600FF91EF919F91BF
:100B10008F914F913F912F910F900FBE0F901F908B
:100B20001895E091ED01F091EE01E05CFF4F8191AD
:100B3000919120813181821B930B8F739070892B4F
:100B400011F00E94550508951F920F920FB60F9253
:100B500011242F933F938F939F93EF93FF932091B3
:100B6000DD013091DE018091DF019091E0012817D5
:100B7000390731F48091C1008F7D8093C10014C08A
:100B8000E091DF01F091E001E356FE4F208180917A
:100B9000DF019091E00101968F7390709093E001D6
:100BA0008093DF012093C600FF91EF919F918F9179
:100BB0003F912F910F900FBE0F901F901895AF92FD
:100BC000BF92DF92EF92FF920F931F93CF93DF9329
:100BD000EC017A018B01DD24403081EE580780E082
:100BE000680780E0780711F0DD24D39491E0A92E06
:100BF000B12CEC89FD89DD2069F0C50108A002C097
:100C0000880F991F0A94E2F7808360E079E08DE312
:100C100090E005C0108260E874E88EE190E0A801E1
:100C200097010E94100D2150304040405040569591
:100C300047953795279580E12030380720F0DD2053
:100C400011F0DD24D6CFE889F9893083EA89FB8960
:100C5000208319A2EE89FF89408121E030E0C9019B
:100C60000C8C02C0880F991F0A94E2F7482B40832E
:100C7000EE89FF894081C9010D8C02C0880F991F40
:100C80000A94E2F7482B4083EE89FF894081C9012D
:100C90000E8C02C0880F991F0A94E2F7482B4083FC
:100CA000EE89FF8980810F8C02C0220F331F0A94C6
:100CB000E2F7209528232083DF91CF911F910F9198
:100CC000FF90EF90DF90BF90AF900895DC011C96ED
:100CD000ED91FC911D97E05CFF4F21913191808156
:100CE0009181281B390B2F733070C9010895DC01E5
:100CF0001C96ED91FC911D97E05CFF4F20813181A6
:100D0000E054F040DF01AE5BBF4F8D919C91119795
:100D10002817390719F42FEF3FEF07C08D919C91E9
:100D2000E80FF91F8081282F30E0C9010895DC0108
:100D30001C96ED91FC911D97E05CFF4F2081318165
:100D4000E054F040DF01AE5BBF4F8D919C91119755
:100D50002817390719F42FEF3FEF10C08D919C91A0
:100D60001197E80FF91F20818D919C9111970196A1
:100D70008F73907011969C938E9330E0C901089503
:100D8000DC0191968C919197882339F05496ED91DE
:100D9000FC915597808186FFF9CF91961C9208951A
:100DA000CF93DF93EC01EE85FF85E05CFF4F208160
:100DB0003181E054F0402F5F3F4F2F733070DF01DF
:100DC000AE5BBF4F8D919C91119728173907D1F3D6
:100DD000E05CFF4F80819181E054F040E80FF91F03
:100DE0006083EE85FF85E05CFF4F31832083EE89D1
:100DF000FF89208181E090E00F8C02C0880F991F4D
:100E00000A94E2F7282B208381E089A3EC89FD89ED
:100E100080818064808381E090E0DF91CF910895AC
:100E20001092E4011092E30188EE93E0A0E0B0E0BC
:100E30008093E5019093E601A093E701B093E80168
:100E400080E291E09093E2018093E10189E591E0F5
:100E50009093EE018093ED018DE991E09093F00184
:100E60008093EF0185EC90E09093F2018093F10183
:100E700084EC90E09093F4018093F30180EC90E097
:100E80009093F6018093F50181EC90E09093F80146
:100E90008093F70182EC90E09093FA018093F9013E
:100EA00086EC90E09093FC018093FB0184E08093BA
:100EB000FD0183E08093FE0187E08093FF0185E0E0
:100EC0008093000281E0809301020895CF93DF9325
:100ED0000E94AF030E94D201C1E9D5E00E94E10067
:100EE0002097E1F30E949105F9CFCF92DF92EF9224
:100EF000FF920F931F93CF93DF937C016B018A01C5
:100F0000C0E0D0E00FC0D6016D916D01D701ED9129
:100F1000FC910190F081E02DC7010995C80FD91F00
:100F2000015010400115110571F7CE01DF91CF91ED
:100F30001F910F91FF90EF90DF90CF900895CF9386
:100F4000DF93EC016115710519F420E030E00FC06A
:100F5000DB010D900020E9F71197A61BB70BE88184
:100F6000F9810280F381E02DAD0109959C01C90151
:100F7000DF91CF9108954F925F927F928F929F92CF
:100F8000AF92BF92CF92DF92EF92FF920F931F9397
:100F9000DF93CF93CDB7DEB7A1970FB6F894DEBF3E
:100FA0000FBECDBF2C01742ECB01223008F42AE0F5
:100FB00019A231E2C32ED12CCC0EDD1E822E992433
:100FC000AA24BB24672D752FA50194010E94100D42
:100FD00079018A01C801B701A50194010E94F10CB1
:100FE000472D461B0894C108D1084A3014F4405DCF
:100FF00001C0495CF6014083E114F10401051105CB
:1010000021F07E2C5F2DC801DDCFC201B6010E9408
:101010009F07A1960FB6F894DEBF0FBECDBFCF914C
:10102000DF911F910F91FF90EF90DF90CF90BF90D5
:10103000AF909F908F907F905F904F900895DC01CC
:101040002115310541F4ED91FC910190F081E02DE5
:10105000642F099508950E94BB070895CF92DF92EF
:10106000EF92FF920F931F93CF93DF93EC016A01EE
:101070007B012115310541F4E881F9810190F0816E
:10108000E02D642F09951FC02A303105D1F477FF78
:1010900017C0E881F9810190F081E02D6DE209959A
:1010A0008C0144275527BA014C195D096E097F0947
:1010B000CE012AE00E94BB079801280F391F04C007
:1010C0002AE00E94BB079C01C901DF91CF911F91CB
:1010D0000F91FF90EF90DF90CF900895EF92FF92E5
:1010E0000F931F937B019A010027F7FC0095102FA7
:1010F000B801A7010E942E081F910F91FF90EF9059
:1011000008950E949F0708957F928F929F92AF92B9
:10111000BF92CF92DF92EF92FF920F931F93CF93E4
:10112000DF934C017A018B01722ECB01BA01A80129
:1011300097010E94D20B882321F0C40165E071E081
:1011400021C0C0E0D0E057016801E894D7F8C6019B
:10115000B5012FEF3FEF4FE75FE70E94D20B8823E7
:1011600051F4C601B5012FEF3FEF4FE75FE70E9453
:10117000D009181614F0C1E0D0E0219739F0C4016D
:1011800069E071E00E949F07EC0193C0C801B701BC
:101190002FEF3FEF4FE75FE40E941F0B181654F04C
:1011A000C801B7012FEF3FEF4FE75FEC0E94D00976
:1011B000882324F4C4016DE071E0E4CFC801B701D5
:1011C00020E030E040E050E00E94D00987FD03C0FD
:1011D000C0E0D0E00EC0D401ED91FC910190F0810F
:1011E000E02DC4016DE20995EC0117FB109517F98C
:1011F000109520E030E040E05FE3DD240BC0CA0141
:10120000B90120E030E040E251E40E94D4099B01A2
:10121000AC01D394D71498F3C801B7010E946C09AC
:101220005B016C010E94410A7B018C01C401B80181
:10123000A7012AE030E00E941F08C80FD91F7720BD
:1012400039F0C40161E171E00E949F07C80FD91F06
:10125000C801B7010E946D0A9B01AC01C601B5012E
:101260000E946B0924C020E030E040E251E40E947B
:10127000230B7B018C010E943C0A5B016C01CC2496
:10128000B7FCC094DC2CC401B601A5012AE030E013
:101290000E942E08C80FD91FC601B5010E946F0A0F
:1012A0009B01AC01C801B7010E946B097A947720B9
:1012B000D1F6CE01DF91CF911F910F91FF90EF906A
:1012C000DF90CF90BF90AF909F908F907F900895C8
:1012D0000E94840808955058BB27AA270ED075C1D4
:1012E00066D130F06BD120F031F49F3F11F41EF441
:1012F0005BC10EF4E095E7FB51C1E92F77D180F394
:10130000BA17620773078407950718F071F49EF502
:101310008FC10EF4E0950B2EBA2FA02D0B01B90151
:1013200090010C01CA01A0011124FF27591B99F05B
:10133000593F50F4503E68F11A16F040A22F232F67
:10134000342F4427585FF3CF469537952795A795B7
:10135000F0405395C9F77EF41F16BA0B620B730B5E
:10136000840BBAF09150A1F0FF0FBB1F661F771FCF
:10137000881FC2F70EC0BA0F621F731F841F48F484
:10138000879577956795B795F7959E3F08F0B3CF0A
:101390009395880F08F09927EE0F979587950895F4
:1013A000D9D008F481E008950CD00FC107D140F0E6
:1013B000FED030F021F45F3F19F0F0C0511139C177
:1013C000F3C014D198F39923C9F35523B1F3951BB6
:1013D000550BBB27AA2762177307840738F09F5F56
:1013E0005F4F220F331F441FAA1FA9F333D00E2EC5
:1013F0003AF0E0E830D091505040E695001CCAF732
:1014000029D0FE2F27D0660F771F881FBB1F2617F6
:1014100037074807AB07B0E809F0BB0B802DBF01C9
:10142000FF2793585F4F2AF09E3F510568F0B6C0E2
:1014300000C15F3FECF3983EDCF3869577956795A6
:10144000B795F7959F5FC9F7880F911D969587957A
:1014500097F90895E1E0660F771F881FBB1F621799
:1014600073078407BA0720F0621B730B840BBA0B57
:10147000EE1F88F7E095089504D06894B111D9C0A3
:101480000895BCD088F09F5790F0B92F9927B75195
:10149000A0F0D1F0660F771F881F991F1AF0BA9538
:1014A000C9F712C0B13081F0C3D0B1E00895C0C017
:1014B000672F782F8827B85F39F0B93FCCF386952E
:1014C00077956795B395D9F73EF49095809570958B
:1014D00061957F4F8F4F9F4F0895E89409C097FB08
:1014E0003EF490958095709561957F4F8F4F9F4FFB
:1014F0009923A9F0F92F96E9BB279395F69587953F
:1015000077956795B795F111F8CFFAF4BB0F11F401
:1015100060FF1BC06F5F7F4F8F4F9F4F16C08823A8
:1015200011F096E911C0772321F09EE8872F762FDE
:1015300005C0662371F096E8862F70E060E02AF01F
:101540009A95660F771F881FDAF7880F969587950B
:1015500097F90895990F0008550FAA0BE0E8FEEFE0
:1015600016161706E807F907C0F012161306E40767
:10157000F50798F0621B730B840B950B39F40A2660
:1015800061F0232B242B252B21F408950A2609F43E
:10159000A140A6958FEF811D811D089597F99F6742
:1015A00080E870E060E008959FEF80EC08950024EB
:1015B0000A941616170618060906089500240A94B8
:1015C00012161306140605060895092E0394000C3E
:1015D00011F4882352F0BB0F40F4BF2B11F460FFCD
:1015E00004C06F5F7F4F8F4F9F4F089557FD9058F6
:1015F000440F551F59F05F3F71F04795880F97FBD7
:10160000991F61F09F3F79F0879508951216130690
:101610001406551FF2CF4695F1DF08C016161706BF
:101620001806991FF1CF86957105610508940895F4
:10163000E894BB2766277727CB0197F908958ADFBF
:1016400008F48FEF08950BD0C0CFB1DF28F0B6DFDC
:1016500018F0952309F0A2CFA7CF1124EACFC6DF57
:10166000A0F3959FD1F3950F50E0551F629FF001B5
:10167000729FBB27F00DB11D639FAA27F00DB11D0E
:10168000AA1F649F6627B00DA11D661F829F222797
:10169000B00DA11D621F739FB00DA11D621F839F1E
:1016A000A00D611D221F749F3327A00D611D231FF4
:1016B000849F600D211D822F762F6A2F11249F5742
:1016C00050408AF0E1F088234AF0EE0FFF1FBB1F65
:1016D000661F771F881F91505040A9F79E3F510504
:1016E00070F05CCFA6CF5F3FECF3983EDCF38695BD
:1016F00077956795B795F795E7959F5FC1F7FE2BAF
:10170000880F911D9695879597F90895FA01EE0F28
:10171000FF1F30962105310599F16115710561F4BE
:101720008038BFE39B0749F168949038810561F0E8
:101730008038BFEF9B0741F0992342F5FF3FE10559
:101740003105210511F1E8940894E795D901AA2300
:1017500029F4AB2FBE2FF85FD0F310C0FF5F70F4F9
:10176000A695E0F7F73950F019F0FF3A38F49F7773
:101770009F930CD00F9007FC905808953EF014CF23
:1017800060E070E080E89FE308954FE79F775F9304
:101790004F933F932F93A2D02F913F914F915F9101
:1017A00052DF09C0D7DE880B990B089519F40EF0AB
:1017B000F5CE3ECFF9CE22DFC8F39638C0F707F852
:1017C0000F92E8942BE33AEA48EB5FE74ADF0F9287
:1017D0000F920F924DB75EB70F92C0D0E8E6F0E0DF
:1017E00016D04F915F91EF91FF91E595EE1FFF1F8E
:1017F00049F0FE57E0684427EE0F441FFA95E1F7E1
:101800004195550B32D00F9007FE26C00895DF9307
:10181000CF931F930F93FF92EF92DF927B018C0186
:10182000689405C0DA2EEF011ADFFE01E894A59155
:101830002591359145915591AEF3EF015EDDFE01A5
:101840009701A801DA9479F7DF90EF90FF900F915C
:101850001F91CF91DF9108959B01AC0160E070E092
:1018600080E89FE3A1CD9ACEACC0C8DEE8F399230F
:10187000D9F3940F511DBBF39150504094F059F09F
:10188000882332F0660F771F881F91505040C1F7B0
:101890009E3F510544F7880F911D9695879597F9BE
:1018A00008955F3FACF0983E9CF0BB2786957795F6
:1018B0006795B79508F4B1609395C1F7BB0F58F7DA
:1018C00011F460FFE8CF6F5F7F4F8F4F9F4FE3CFE3
:1018D000B0CE0EF076C068CE689460CE8FDEC8F3CE
:1018E0009923D1F3C6F3DF93CF931F930F93FF9206
:1018F000C92FDD2788232AF02197660F771F881FBD
:10190000DAF720E030E040E85FEB9FE3883920F031
:10191000803E30F021968F77DFDCE0E9F0E003C015
:10192000DBDCEDEBF0E073DF8B01BE01EC01FB2EA5
:101930006F5771097595771F880B990BD0DD28E1DA
:1019400032E741E35FE38BDEAF2D9801AE01FF90FC
:101950000F911F91CF91DF91D0DC37CEFA01DC01DE
:10196000AA0FBB1F9B01AC01BF5728F422273327C6
:10197000442750781FC0B75188F4AB2F00244695F8
:1019800037952795011CA395D2F3002069F0220F0B
:10199000331F441FB395DAF30DD09DCC6130710530
:1019A000A0E88A07B94630F49B01AC016627772787
:1019B00088279078309621F02083318342835383A7
:1019C00008959F3F49F0915028F486957795679543
:1019D000B7959F5F80389F4F880F9695879597F9A9
:1019E0000895629FD001739FF001829FE00DF11D69
:1019F000649FE00DF11D929FF00D839FF00D749F89
:101A0000F00D659FF00D9927729FB00DE11DF91F34
:101A1000639FB00DE11DF91FBD01CF011124089591
:101A2000A1E21A2EAA1BBB1BFD010DC0AA1FBB1FE2
:101A3000EE1FFF1FA217B307E407F50720F0A21B54
:101A4000B30BE40BF50B661F771F881F991F1A94C1
:101A500069F760957095809590959B01AC01BD01EB
:101A6000CF010895EE0FFF1F0590F491E02D09942A
:041A7000F894FFCF18
:101A74002D2D000A006E616E00696E66006F766639
:101A8400002E0001000000006602FD0100000000BD
:0C1A9400D0067507660697067706C006A8
:00000001FF
